{
  "contractName": "Fissa",
  "abi": [
    {
      "constant": true,
      "inputs": [],
      "name": "ticketPrice",
      "outputs": [
        {
          "name": "",
          "type": "uint256"
        }
      ],
      "payable": false,
      "stateMutability": "view",
      "type": "function"
    },
    {
      "constant": true,
      "inputs": [],
      "name": "threshold",
      "outputs": [
        {
          "name": "",
          "type": "uint256"
        }
      ],
      "payable": false,
      "stateMutability": "view",
      "type": "function"
    },
    {
      "constant": true,
      "inputs": [],
      "name": "eventName",
      "outputs": [
        {
          "name": "",
          "type": "string"
        }
      ],
      "payable": false,
      "stateMutability": "view",
      "type": "function"
    },
    {
      "constant": true,
      "inputs": [],
      "name": "startsAt",
      "outputs": [
        {
          "name": "",
          "type": "uint256"
        }
      ],
      "payable": false,
      "stateMutability": "view",
      "type": "function"
    },
    {
      "inputs": [
        {
          "name": "_eventName",
          "type": "string"
        },
        {
          "name": "_startsAt",
          "type": "uint256"
        },
        {
          "name": "_ticketPrice",
          "type": "uint256"
        },
        {
          "name": "_threshold",
          "type": "uint256"
        }
      ],
      "payable": false,
      "stateMutability": "nonpayable",
      "type": "constructor"
    }
  ],
  "bytecode": "0x60806040526040518060200160405280600081525060009080519060200190610029929190610111565b5060006001556000600255600060035534801561004557600080fd5b506040516103ec3803806103ec8339810180604052608081101561006857600080fd5b81019080805164010000000081111561008057600080fd5b8281019050602081018481111561009657600080fd5b81518560018202830111640100000000821117156100b357600080fd5b505092919060200180519060200190929190805190602001909291908051906020019092919050505083600090805190602001906100f2929190610111565b50826001819055508160028190555080600381905550505050506101b6565b828054600181600116156101000203166002900490600052602060002090601f016020900481019282601f1061015257805160ff1916838001178555610180565b82800160010185558215610180579182015b8281111561017f578251825591602001919060010190610164565b5b50905061018d9190610191565b5090565b6101b391905b808211156101af576000816000905550600101610197565b5090565b90565b610227806101c56000396000f3fe608060405234801561001057600080fd5b5060043610610069576000357c0100000000000000000000000000000000000000000000000000000000900480631209b1f61461006e57806342cde4e81461008c5780638043c9c0146100aa578063af4686821461012d575b600080fd5b61007661014b565b6040518082815260200191505060405180910390f35b610094610151565b6040518082815260200191505060405180910390f35b6100b2610157565b6040518080602001828103825283818151815260200191508051906020019080838360005b838110156100f25780820151818401526020810190506100d7565b50505050905090810190601f16801561011f5780820380516001836020036101000a031916815260200191505b509250505060405180910390f35b6101356101f5565b6040518082815260200191505060405180910390f35b60025481565b60035481565b60008054600181600116156101000203166002900480601f0160208091040260200160405190810160405280929190818152602001828054600181600116156101000203166002900480156101ed5780601f106101c2576101008083540402835291602001916101ed565b820191906000526020600020905b8154815290600101906020018083116101d057829003601f168201915b505050505081565b6001548156fea165627a7a72305820cc402cd9f1b68da53614eb262af1e051a345750672b9e310a498799f27b059da0029",
  "source": "pragma solidity ^0.5.7;\n\ncontract Fissa {\n  string public eventName = \"\"; \n  uint public startsAt = 0;\n  uint public ticketPrice = 0;\n  uint public threshold = 0;\n\n  constructor(string memory _eventName,\n              uint _startsAt,\n              uint _ticketPrice,\n              uint _threshold) public {\n    eventName = _eventName;\n    startsAt = _startsAt;\n    ticketPrice = _ticketPrice;\n    threshold = _threshold;\n  }\n}\n",
  "sourcePath": "/home/ber/Documenten/FND_fundfissa/fundfissa/contracts/Fissa.sol",
  "compiler": {
    "name": "solc",
    "version": "0.5.7+commit.6da8b019.Emscripten.clang"
  },
  "schemaVersion": "3.0.9",
  "updatedAt": "2019-05-21T12:25:53.307Z",
  "devdoc": {
    "methods": {}
  },
  "userdoc": {
    "methods": {}
  }
}