{
  "contractName": "Fissa",
  "abi": [
    {
      "constant": true,
      "inputs": [],
      "name": "ticketPrice",
      "outputs": [
        {
          "name": "",
          "type": "uint256"
        }
      ],
      "payable": false,
      "stateMutability": "view",
      "type": "function"
    },
    {
      "constant": true,
      "inputs": [],
      "name": "threshold",
      "outputs": [
        {
          "name": "",
          "type": "uint256"
        }
      ],
      "payable": false,
      "stateMutability": "view",
      "type": "function"
    },
    {
      "constant": true,
      "inputs": [],
      "name": "organizer",
      "outputs": [
        {
          "name": "",
          "type": "address"
        }
      ],
      "payable": false,
      "stateMutability": "view",
      "type": "function"
    },
    {
      "constant": true,
      "inputs": [],
      "name": "eventName",
      "outputs": [
        {
          "name": "",
          "type": "string"
        }
      ],
      "payable": false,
      "stateMutability": "view",
      "type": "function"
    },
    {
      "constant": true,
      "inputs": [],
      "name": "startsAt",
      "outputs": [
        {
          "name": "",
          "type": "uint256"
        }
      ],
      "payable": false,
      "stateMutability": "view",
      "type": "function"
    },
    {
      "inputs": [
        {
          "name": "_eventName",
          "type": "string"
        },
        {
          "name": "_startsAt",
          "type": "uint256"
        },
        {
          "name": "_ticketPrice",
          "type": "uint256"
        },
        {
          "name": "_threshold",
          "type": "uint256"
        }
      ],
      "payable": false,
      "stateMutability": "nonpayable",
      "type": "constructor"
    },
    {
      "anonymous": false,
      "inputs": [
        {
          "indexed": false,
          "name": "purchaser",
          "type": "address"
        }
      ],
      "name": "Purchase",
      "type": "event"
    },
    {
      "constant": true,
      "inputs": [],
      "name": "isExpired",
      "outputs": [
        {
          "name": "",
          "type": "bool"
        }
      ],
      "payable": false,
      "stateMutability": "view",
      "type": "function"
    },
    {
      "constant": true,
      "inputs": [],
      "name": "isFunded",
      "outputs": [
        {
          "name": "",
          "type": "bool"
        }
      ],
      "payable": false,
      "stateMutability": "view",
      "type": "function"
    },
    {
      "constant": true,
      "inputs": [
        {
          "name": "participant",
          "type": "address"
        }
      ],
      "name": "participants",
      "outputs": [
        {
          "name": "",
          "type": "uint256"
        }
      ],
      "payable": false,
      "stateMutability": "view",
      "type": "function"
    },
    {
      "constant": true,
      "inputs": [
        {
          "name": "participant",
          "type": "address"
        }
      ],
      "name": "balances",
      "outputs": [
        {
          "name": "",
          "type": "uint256"
        }
      ],
      "payable": false,
      "stateMutability": "view",
      "type": "function"
    },
    {
      "constant": false,
      "inputs": [],
      "name": "purchase",
      "outputs": [],
      "payable": true,
      "stateMutability": "payable",
      "type": "function"
    },
    {
      "constant": false,
      "inputs": [
        {
          "name": "_amount",
          "type": "uint256"
        }
      ],
      "name": "withdraw",
      "outputs": [],
      "payable": false,
      "stateMutability": "nonpayable",
      "type": "function"
    }
  ],
  "bytecode": "0x60806040526040518060200160405280600081525060009080519060200190610029929190610152565b5060006001556000600255600060035534801561004557600080fd5b50604051610b9e380380610b9e8339810180604052608081101561006857600080fd5b81019080805164010000000081111561008057600080fd5b8281019050602081018481111561009657600080fd5b81518560018202830111640100000000821117156100b357600080fd5b505092919060200180519060200190929190805190602001909291908051906020019092919050505083600090805190602001906100f2929190610152565b5082600181905550816002819055508060038190555033600460006101000a81548173ffffffffffffffffffffffffffffffffffffffff021916908373ffffffffffffffffffffffffffffffffffffffff160217905550505050506101f7565b828054600181600116156101000203166002900490600052602060002090601f016020900481019282601f1061019357805160ff19168380011785556101c1565b828001600101855582156101c1579182015b828111156101c05782518255916020019190600101906101a5565b5b5090506101ce91906101d2565b5090565b6101f491905b808211156101f05760008160009055506001016101d8565b5090565b90565b610998806102066000396000f3fe6080604052600436106100b9576000357c01000000000000000000000000000000000000000000000000000000009004806342cde4e81161008157806342cde4e81461021d578063612032651461024857806364edfbf01461029f5780637c654303146102a95780638043c9c0146102d8578063af46868214610368576100b9565b806309e69ede146100be5780631209b1f61461012357806327e235e31461014e5780632e1a7d4d146101b35780632f13b60c146101ee575b600080fd5b3480156100ca57600080fd5b5061010d600480360360208110156100e157600080fd5b81019080803573ffffffffffffffffffffffffffffffffffffffff169060200190929190505050610393565b6040518082815260200191505060405180910390f35b34801561012f57600080fd5b506101386103e7565b6040518082815260200191505060405180910390f35b34801561015a57600080fd5b5061019d6004803603602081101561017157600080fd5b81019080803573ffffffffffffffffffffffffffffffffffffffff1690602001909291905050506103ed565b6040518082815260200191505060405180910390f35b3480156101bf57600080fd5b506101ec600480360360208110156101d657600080fd5b81019080803590602001909291905050506104ac565b005b3480156101fa57600080fd5b506102036106c8565b604051808215151515815260200191505060405180910390f35b34801561022957600080fd5b506102326106d4565b6040518082815260200191505060405180910390f35b34801561025457600080fd5b5061025d6106da565b604051808273ffffffffffffffffffffffffffffffffffffffff1673ffffffffffffffffffffffffffffffffffffffff16815260200191505060405180910390f35b6102a7610700565b005b3480156102b557600080fd5b506102be6108a4565b604051808215151515815260200191505060405180910390f35b3480156102e457600080fd5b506102ed6108c8565b6040518080602001828103825283818151815260200191508051906020019080838360005b8381101561032d578082015181840152602081019050610312565b50505050905090810190601f16801561035a5780820380516001836020036101000a031916815260200191505b509250505060405180910390f35b34801561037457600080fd5b5061037d610966565b6040518082815260200191505060405180910390f35b6000600254600560008473ffffffffffffffffffffffffffffffffffffffff1673ffffffffffffffffffffffffffffffffffffffff16815260200190815260200160002054816103df57fe5b049050919050565b60025481565b6000600460009054906101000a900473ffffffffffffffffffffffffffffffffffffffff1673ffffffffffffffffffffffffffffffffffffffff168273ffffffffffffffffffffffffffffffffffffffff161415610464573073ffffffffffffffffffffffffffffffffffffffff163190506104a7565b600560008373ffffffffffffffffffffffffffffffffffffffff1673ffffffffffffffffffffffffffffffffffffffff1681526020019081526020016000205490505b919050565b6104b46106c8565b610526576040517f08c379a000000000000000000000000000000000000000000000000000000000815260040180806020018281038252600a8152602001807f4e6f74457870697265640000000000000000000000000000000000000000000081525060200191505060405180910390fd5b600460009054906101000a900473ffffffffffffffffffffffffffffffffffffffff1673ffffffffffffffffffffffffffffffffffffffff163373ffffffffffffffffffffffffffffffffffffffff16146106315780600560003373ffffffffffffffffffffffffffffffffffffffff1673ffffffffffffffffffffffffffffffffffffffff168152602001908152602001600020541015610630576040517f08c379a00000000000000000000000000000000000000000000000000000000081526004018080602001828103825260138152602001807f496e73756666696369656e7442616c616e63650000000000000000000000000081525060200191505060405180910390fd5b5b80600560003373ffffffffffffffffffffffffffffffffffffffff1673ffffffffffffffffffffffffffffffffffffffff168152602001908152602001600020600082825403925050819055503373ffffffffffffffffffffffffffffffffffffffff166108fc829081150290604051600060405180830381858888f193505050501580156106c4573d6000803e3d6000fd5b5050565b60004260015410905090565b60035481565b600460009054906101000a900473ffffffffffffffffffffffffffffffffffffffff1681565b6002543414610777576040517f08c379a00000000000000000000000000000000000000000000000000000000081526004018080602001828103825260138152602001807f5469636b657450726963654d69736d617463680000000000000000000000000081525060200191505060405180910390fd5b61077f6106c8565b156107f2576040517f08c379a00000000000000000000000000000000000000000000000000000000081526004018080602001828103825260078152602001807f457870697265640000000000000000000000000000000000000000000000000081525060200191505060405180910390fd5b34600560003373ffffffffffffffffffffffffffffffffffffffff1673ffffffffffffffffffffffffffffffffffffffff168152602001908152602001600020600082825401925050819055507f233e08777131763a85257b15eafc9f96ef08f259653d9944301ff924b3917cf533604051808273ffffffffffffffffffffffffffffffffffffffff1673ffffffffffffffffffffffffffffffffffffffff16815260200191505060405180910390a1565b60006003543073ffffffffffffffffffffffffffffffffffffffff16311015905090565b60008054600181600116156101000203166002900480601f01602080910402602001604051908101604052809291908181526020018280546001816001161561010002031660029004801561095e5780601f106109335761010080835404028352916020019161095e565b820191906000526020600020905b81548152906001019060200180831161094157829003601f168201915b505050505081565b6001548156fea165627a7a72305820b56279160953e4ee9ca32542cacd421d71ccbd77464cb1751cb798e0f9ae98d20029",
  "source": "pragma solidity ^0.5.7;\n\ncontract Fissa {\n  string public eventName = \"\"; \n  uint public startsAt = 0;\n  uint public ticketPrice = 0;\n  uint public threshold = 0;\n  address public organizer;\n\n  // @dev: we have a severe security issue here, if we don't explicitely\n  //       check the uint8 size on setting it.\n  mapping(address => uint) private _balances;\n\n  event Purchase(address purchaser);\n\n  constructor(string memory _eventName,\n              uint _startsAt,\n              uint _ticketPrice,\n              uint _threshold) public {\n    eventName = _eventName;\n    startsAt = _startsAt;\n    ticketPrice = _ticketPrice;\n    threshold = _threshold;\n    organizer = msg.sender;\n  }\n\n  function isExpired() public view returns(bool) {\n    return startsAt < now;\n  }\n\n  function isFunded() public view returns(bool) {\n    return address(this).balance >= threshold;\n  }\n\n  function participants(address participant) public view returns(uint) {\n    return _balances[participant] / ticketPrice;\n  }\n\n  function balances(address participant) public view returns(uint) {\n    if (participant == organizer) {\n      return address(this).balance;\n    }\n    else {\n      return _balances[participant];\n    }\n  }\n\n  function purchase() public payable {\n    require(msg.value == ticketPrice, \"TicketPriceMismatch\");\n    require(! isExpired(), \"Expired\");\n\n    _balances[msg.sender] += msg.value;\n    emit Purchase(msg.sender);\n  }\n\n  function withdraw(uint _amount) public {\n    require(isExpired(), \"NotExpired\");\n\n    if (!(msg.sender == organizer)) {\n      require(_balances[msg.sender] >= _amount, \"InsufficientBalance\");\n    }\n\n    _balances[msg.sender] -= _amount;\n\n    msg.sender.transfer(_amount);\n  }\n}\n",
  "sourcePath": "/home/ber/Documenten/FND_fundfissa/fundfissa/contracts/Fissa.sol",
  "compiler": {
    "name": "solc",
    "version": "0.5.7+commit.6da8b019.Emscripten.clang"
  },
  "schemaVersion": "3.0.9",
  "updatedAt": "2019-05-28T12:07:45.338Z",
  "devdoc": {
    "methods": {}
  },
  "userdoc": {
    "methods": {}
  }
}